{
  "_format": "hh-sol-artifact-1",
  "contractName": "UntitledSnakesProject",
  "sourceName": "contracts/UntitledSnakesProject.sol",
  "abi": [
    {
      "inputs": [
        {
          "internalType": "string",
          "name": "_initialBaseURI",
          "type": "string"
        },
        {
          "internalType": "uint256",
          "name": "_price",
          "type": "uint256"
        },
        {
          "internalType": "address",
          "name": "_pohAddress",
          "type": "address"
        },
        {
          "internalType": "address",
          "name": "_ubiBurnerAddress",
          "type": "address"
        }
      ],
      "stateMutability": "nonpayable",
      "type": "constructor"
    },
    {
      "anonymous": false,
      "inputs": [
        {
          "indexed": true,
          "internalType": "address",
          "name": "owner",
          "type": "address"
        },
        {
          "indexed": true,
          "internalType": "address",
          "name": "approved",
          "type": "address"
        },
        {
          "indexed": true,
          "internalType": "uint256",
          "name": "tokenId",
          "type": "uint256"
        }
      ],
      "name": "Approval",
      "type": "event"
    },
    {
      "anonymous": false,
      "inputs": [
        {
          "indexed": true,
          "internalType": "address",
          "name": "owner",
          "type": "address"
        },
        {
          "indexed": true,
          "internalType": "address",
          "name": "operator",
          "type": "address"
        },
        {
          "indexed": false,
          "internalType": "bool",
          "name": "approved",
          "type": "bool"
        }
      ],
      "name": "ApprovalForAll",
      "type": "event"
    },
    {
      "anonymous": false,
      "inputs": [
        {
          "indexed": false,
          "internalType": "address",
          "name": "human",
          "type": "address"
        },
        {
          "indexed": false,
          "internalType": "uint256[]",
          "name": "tokenIds",
          "type": "uint256[]"
        }
      ],
      "name": "HumanityLover",
      "type": "event"
    },
    {
      "anonymous": false,
      "inputs": [
        {
          "indexed": true,
          "internalType": "address",
          "name": "previousOwner",
          "type": "address"
        },
        {
          "indexed": true,
          "internalType": "address",
          "name": "newOwner",
          "type": "address"
        }
      ],
      "name": "OwnershipTransferred",
      "type": "event"
    },
    {
      "anonymous": false,
      "inputs": [
        {
          "indexed": true,
          "internalType": "address",
          "name": "from",
          "type": "address"
        },
        {
          "indexed": true,
          "internalType": "address",
          "name": "to",
          "type": "address"
        },
        {
          "indexed": true,
          "internalType": "uint256",
          "name": "tokenId",
          "type": "uint256"
        }
      ],
      "name": "Transfer",
      "type": "event"
    },
    {
      "inputs": [],
      "name": "MAX_MINT_PER_TX",
      "outputs": [
        {
          "internalType": "uint256",
          "name": "",
          "type": "uint256"
        }
      ],
      "stateMutability": "view",
      "type": "function"
    },
    {
      "inputs": [],
      "name": "MAX_SUPPLY",
      "outputs": [
        {
          "internalType": "uint256",
          "name": "",
          "type": "uint256"
        }
      ],
      "stateMutability": "view",
      "type": "function"
    },
    {
      "inputs": [],
      "name": "POH",
      "outputs": [
        {
          "internalType": "address",
          "name": "",
          "type": "address"
        }
      ],
      "stateMutability": "view",
      "type": "function"
    },
    {
      "inputs": [],
      "name": "UBI_BURNER",
      "outputs": [
        {
          "internalType": "address",
          "name": "",
          "type": "address"
        }
      ],
      "stateMutability": "view",
      "type": "function"
    },
    {
      "inputs": [
        {
          "internalType": "address",
          "name": "to",
          "type": "address"
        },
        {
          "internalType": "uint256",
          "name": "tokenId",
          "type": "uint256"
        }
      ],
      "name": "approve",
      "outputs": [],
      "stateMutability": "nonpayable",
      "type": "function"
    },
    {
      "inputs": [
        {
          "internalType": "address",
          "name": "owner",
          "type": "address"
        }
      ],
      "name": "balanceOf",
      "outputs": [
        {
          "internalType": "uint256",
          "name": "",
          "type": "uint256"
        }
      ],
      "stateMutability": "view",
      "type": "function"
    },
    {
      "inputs": [],
      "name": "baseURI",
      "outputs": [
        {
          "internalType": "string",
          "name": "",
          "type": "string"
        }
      ],
      "stateMutability": "view",
      "type": "function"
    },
    {
      "inputs": [
        {
          "internalType": "uint256",
          "name": "tokenId",
          "type": "uint256"
        }
      ],
      "name": "getApproved",
      "outputs": [
        {
          "internalType": "address",
          "name": "",
          "type": "address"
        }
      ],
      "stateMutability": "view",
      "type": "function"
    },
    {
      "inputs": [
        {
          "internalType": "address",
          "name": "owner",
          "type": "address"
        },
        {
          "internalType": "address",
          "name": "operator",
          "type": "address"
        }
      ],
      "name": "isApprovedForAll",
      "outputs": [
        {
          "internalType": "bool",
          "name": "",
          "type": "bool"
        }
      ],
      "stateMutability": "view",
      "type": "function"
    },
    {
      "inputs": [],
      "name": "isSaleActive",
      "outputs": [
        {
          "internalType": "bool",
          "name": "",
          "type": "bool"
        }
      ],
      "stateMutability": "view",
      "type": "function"
    },
    {
      "inputs": [
        {
          "internalType": "uint256",
          "name": "_quantity",
          "type": "uint256"
        }
      ],
      "name": "mint",
      "outputs": [],
      "stateMutability": "payable",
      "type": "function"
    },
    {
      "inputs": [],
      "name": "name",
      "outputs": [
        {
          "internalType": "string",
          "name": "",
          "type": "string"
        }
      ],
      "stateMutability": "view",
      "type": "function"
    },
    {
      "inputs": [],
      "name": "owner",
      "outputs": [
        {
          "internalType": "address",
          "name": "",
          "type": "address"
        }
      ],
      "stateMutability": "view",
      "type": "function"
    },
    {
      "inputs": [
        {
          "internalType": "uint256",
          "name": "tokenId",
          "type": "uint256"
        }
      ],
      "name": "ownerOf",
      "outputs": [
        {
          "internalType": "address",
          "name": "",
          "type": "address"
        }
      ],
      "stateMutability": "view",
      "type": "function"
    },
    {
      "inputs": [],
      "name": "price",
      "outputs": [
        {
          "internalType": "uint256",
          "name": "",
          "type": "uint256"
        }
      ],
      "stateMutability": "view",
      "type": "function"
    },
    {
      "inputs": [],
      "name": "profitsForUBIBurner",
      "outputs": [
        {
          "internalType": "uint256",
          "name": "",
          "type": "uint256"
        }
      ],
      "stateMutability": "view",
      "type": "function"
    },
    {
      "inputs": [],
      "name": "provenanceHash",
      "outputs": [
        {
          "internalType": "string",
          "name": "",
          "type": "string"
        }
      ],
      "stateMutability": "view",
      "type": "function"
    },
    {
      "inputs": [],
      "name": "renounceOwnership",
      "outputs": [],
      "stateMutability": "nonpayable",
      "type": "function"
    },
    {
      "inputs": [
        {
          "internalType": "address",
          "name": "from",
          "type": "address"
        },
        {
          "internalType": "address",
          "name": "to",
          "type": "address"
        },
        {
          "internalType": "uint256",
          "name": "tokenId",
          "type": "uint256"
        }
      ],
      "name": "safeTransferFrom",
      "outputs": [],
      "stateMutability": "nonpayable",
      "type": "function"
    },
    {
      "inputs": [
        {
          "internalType": "address",
          "name": "from",
          "type": "address"
        },
        {
          "internalType": "address",
          "name": "to",
          "type": "address"
        },
        {
          "internalType": "uint256",
          "name": "tokenId",
          "type": "uint256"
        },
        {
          "internalType": "bytes",
          "name": "_data",
          "type": "bytes"
        }
      ],
      "name": "safeTransferFrom",
      "outputs": [],
      "stateMutability": "nonpayable",
      "type": "function"
    },
    {
      "inputs": [
        {
          "internalType": "address",
          "name": "operator",
          "type": "address"
        },
        {
          "internalType": "bool",
          "name": "approved",
          "type": "bool"
        }
      ],
      "name": "setApprovalForAll",
      "outputs": [],
      "stateMutability": "nonpayable",
      "type": "function"
    },
    {
      "inputs": [
        {
          "internalType": "string",
          "name": "_newBaseURI",
          "type": "string"
        }
      ],
      "name": "setBaseURI",
      "outputs": [],
      "stateMutability": "nonpayable",
      "type": "function"
    },
    {
      "inputs": [
        {
          "internalType": "uint256",
          "name": "_newPrice",
          "type": "uint256"
        }
      ],
      "name": "setPrice",
      "outputs": [],
      "stateMutability": "nonpayable",
      "type": "function"
    },
    {
      "inputs": [
        {
          "internalType": "string",
          "name": "_provenanceHash",
          "type": "string"
        }
      ],
      "name": "setProvenanceHash",
      "outputs": [],
      "stateMutability": "nonpayable",
      "type": "function"
    },
    {
      "inputs": [
        {
          "internalType": "bytes4",
          "name": "interfaceId",
          "type": "bytes4"
        }
      ],
      "name": "supportsInterface",
      "outputs": [
        {
          "internalType": "bool",
          "name": "",
          "type": "bool"
        }
      ],
      "stateMutability": "view",
      "type": "function"
    },
    {
      "inputs": [],
      "name": "symbol",
      "outputs": [
        {
          "internalType": "string",
          "name": "",
          "type": "string"
        }
      ],
      "stateMutability": "view",
      "type": "function"
    },
    {
      "inputs": [],
      "name": "teamMint",
      "outputs": [],
      "stateMutability": "nonpayable",
      "type": "function"
    },
    {
      "inputs": [],
      "name": "toggleSaleStatus",
      "outputs": [],
      "stateMutability": "nonpayable",
      "type": "function"
    },
    {
      "inputs": [
        {
          "internalType": "uint256",
          "name": "tokenId",
          "type": "uint256"
        }
      ],
      "name": "tokenURI",
      "outputs": [
        {
          "internalType": "string",
          "name": "",
          "type": "string"
        }
      ],
      "stateMutability": "view",
      "type": "function"
    },
    {
      "inputs": [],
      "name": "totalSupply",
      "outputs": [
        {
          "internalType": "uint256",
          "name": "",
          "type": "uint256"
        }
      ],
      "stateMutability": "view",
      "type": "function"
    },
    {
      "inputs": [
        {
          "internalType": "address",
          "name": "from",
          "type": "address"
        },
        {
          "internalType": "address",
          "name": "to",
          "type": "address"
        },
        {
          "internalType": "uint256",
          "name": "tokenId",
          "type": "uint256"
        }
      ],
      "name": "transferFrom",
      "outputs": [],
      "stateMutability": "nonpayable",
      "type": "function"
    },
    {
      "inputs": [
        {
          "internalType": "address",
          "name": "newOwner",
          "type": "address"
        }
      ],
      "name": "transferOwnership",
      "outputs": [],
      "stateMutability": "nonpayable",
      "type": "function"
    },
    {
      "inputs": [],
      "name": "transferToUBIBurner",
      "outputs": [],
      "stateMutability": "nonpayable",
      "type": "function"
    },
    {
      "inputs": [],
      "name": "withdraw",
      "outputs": [],
      "stateMutability": "nonpayable",
      "type": "function"
    }
  ],
  "bytecode": "0x60c06040523480156200001157600080fd5b50604051620026d5380380620026d58339810160408190526200003491620002e1565b604080518082018252601781527f556e7469746c656420536e616b65732050726f6a656374000000000000000000602080830191825283518085019094526005845264534e414b4560d81b908401528151919291620000969160009162000208565b508051620000ac90600190602084019062000208565b505050620000c9620000c3620000fa60201b60201c565b620000fe565b620000d48462000150565b620000df83620001b8565b6001600160a01b039182166080521660a052506200042c9050565b3390565b600680546001600160a01b038381166001600160a01b0319831681179093556040519116919082907f8be0079c531659141344cd1fd0a4f28419497f9722a3daafe3b4186f6b6457e090600090a35050565b6006546001600160a01b031633146200019f5760405162461bcd60e51b81526020600482018190526024820152600080516020620026b583398151915260448201526064015b60405180910390fd5b8051620001b490600790602084019062000208565b5050565b6006546001600160a01b03163314620002035760405162461bcd60e51b81526020600482018190526024820152600080516020620026b5833981519152604482015260640162000196565b600955565b8280546200021690620003ef565b90600052602060002090601f0160209004810192826200023a576000855562000285565b82601f106200025557805160ff191683800117855562000285565b8280016001018555821562000285579182015b828111156200028557825182559160200191906001019062000268565b506200029392915062000297565b5090565b5b8082111562000293576000815560010162000298565b634e487b7160e01b600052604160045260246000fd5b80516001600160a01b0381168114620002dc57600080fd5b919050565b60008060008060808587031215620002f857600080fd5b84516001600160401b03808211156200031057600080fd5b818701915087601f8301126200032557600080fd5b8151818111156200033a576200033a620002ae565b604051601f8201601f19908116603f01168101908382118183101715620003655762000365620002ae565b81604052828152602093508a848487010111156200038257600080fd5b600091505b82821015620003a6578482018401518183018501529083019062000387565b82821115620003b85760008484830101525b8098505050508087015194505050620003d460408601620002c4565b9150620003e460608601620002c4565b905092959194509250565b600181811c908216806200040457607f821691505b602082108114156200042657634e487b7160e01b600052602260045260246000fd5b50919050565b60805160a051612255620004606000396000818161032a01526107380152600081816104dd0152610f9101526122556000f3fe6080604052600436106101f95760003560e01c80636c0360eb1161010d578063a035b1fe116100a0578063ba7a86b81161006f578063ba7a86b81461057d578063c6ab67a314610592578063c87b56dd146105a7578063e985e9c5146105c7578063f2fde38b1461061057600080fd5b8063a035b1fe14610514578063a0712d681461052a578063a22cb4651461053d578063b88d4fde1461055d57600080fd5b80638ecad721116100dc5780638ecad7211461049657806391b7f5ed146104ab578063944a4e15146104cb57806395d89b41146104ff57600080fd5b80636c0360eb1461042e57806370a0823114610443578063715018a6146104635780638da5cb5b1461047857600080fd5b8063188bcfb51161019057806342842e0e1161015f57806342842e0e1461039757806347f7bdc2146103b757806355f804b3146103cd578063564566a8146103ed5780636352211e1461040e57600080fd5b8063188bcfb51461031857806323b872dd1461034c57806332cb6b0c1461036c5780633ccfd60b1461038257600080fd5b8063081812fc116101cc578063081812fc14610281578063095ea7b3146102b957806310969523146102d957806318160ddd146102f957600080fd5b806301ffc9a7146101fe578063049c5c4914610233578063053f7ae41461024a57806306fdde031461025f575b600080fd5b34801561020a57600080fd5b5061021e610219366004611c36565b610630565b60405190151581526020015b60405180910390f35b34801561023f57600080fd5b50610248610682565b005b34801561025657600080fd5b506102486106d6565b34801561026b57600080fd5b506102746107ed565b60405161022a9190611cab565b34801561028d57600080fd5b506102a161029c366004611cbe565b61087f565b6040516001600160a01b03909116815260200161022a565b3480156102c557600080fd5b506102486102d4366004611cf3565b610914565b3480156102e557600080fd5b506102486102f4366004611da9565b610a2a565b34801561030557600080fd5b50600b545b60405190815260200161022a565b34801561032457600080fd5b506102a17f000000000000000000000000000000000000000000000000000000000000000081565b34801561035857600080fd5b50610248610367366004611df2565b610a67565b34801561037857600080fd5b5061030a611a0a81565b34801561038e57600080fd5b50610248610a98565b3480156103a357600080fd5b506102486103b2366004611df2565b610ba6565b3480156103c357600080fd5b5061030a600a5481565b3480156103d957600080fd5b506102486103e8366004611da9565b610bc1565b3480156103f957600080fd5b5060065461021e90600160a01b900460ff1681565b34801561041a57600080fd5b506102a1610429366004611cbe565b610bfe565b34801561043a57600080fd5b50610274610c75565b34801561044f57600080fd5b5061030a61045e366004611e2e565b610d03565b34801561046f57600080fd5b50610248610d8a565b34801561048457600080fd5b506006546001600160a01b03166102a1565b3480156104a257600080fd5b5061030a600a81565b3480156104b757600080fd5b506102486104c6366004611cbe565b610dc0565b3480156104d757600080fd5b506102a17f000000000000000000000000000000000000000000000000000000000000000081565b34801561050b57600080fd5b50610274610def565b34801561052057600080fd5b5061030a60095481565b610248610538366004611cbe565b610dfe565b34801561054957600080fd5b50610248610558366004611e57565b611069565b34801561056957600080fd5b50610248610578366004611e8e565b611074565b34801561058957600080fd5b506102486110ac565b34801561059e57600080fd5b50610274611134565b3480156105b357600080fd5b506102746105c2366004611cbe565b611141565b3480156105d357600080fd5b5061021e6105e2366004611f0a565b6001600160a01b03918216600090815260056020908152604080832093909416825291909152205460ff1690565b34801561061c57600080fd5b5061024861062b366004611e2e565b61121c565b60006001600160e01b031982166380ac58cd60e01b148061066157506001600160e01b03198216635b5e139f60e01b145b8061067c57506301ffc9a760e01b6001600160e01b03198316145b92915050565b6006546001600160a01b031633146106b55760405162461bcd60e51b81526004016106ac90611f3d565b60405180910390fd5b6006805460ff60a01b198116600160a01b9182900460ff1615909102179055565b6000600a541161071e5760405162461bcd60e51b81526020600482015260136024820152722737ba3434b733903a37903a3930b739b332b960691b60448201526064016106ac565b600a80546000918290556040519091906001600160a01b037f0000000000000000000000000000000000000000000000000000000000000000169083908381818185875af1925050503d8060008114610793576040519150601f19603f3d011682016040523d82523d6000602084013e610798565b606091505b50509050806107e95760405162461bcd60e51b815260206004820152601960248201527f5542494275726e6572207472616e73666572206661696c65640000000000000060448201526064016106ac565b5050565b6060600080546107fc90611f72565b80601f016020809104026020016040519081016040528092919081815260200182805461082890611f72565b80156108755780601f1061084a57610100808354040283529160200191610875565b820191906000526020600020905b81548152906001019060200180831161085857829003601f168201915b5050505050905090565b6000818152600260205260408120546001600160a01b03166108f85760405162461bcd60e51b815260206004820152602c60248201527f4552433732313a20617070726f76656420717565727920666f72206e6f6e657860448201526b34b9ba32b73a103a37b5b2b760a11b60648201526084016106ac565b506000908152600460205260409020546001600160a01b031690565b600061091f82610bfe565b9050806001600160a01b0316836001600160a01b0316141561098d5760405162461bcd60e51b815260206004820152602160248201527f4552433732313a20617070726f76616c20746f2063757272656e74206f776e656044820152603960f91b60648201526084016106ac565b336001600160a01b03821614806109a957506109a981336105e2565b610a1b5760405162461bcd60e51b815260206004820152603860248201527f4552433732313a20617070726f76652063616c6c6572206973206e6f74206f7760448201527f6e6572206e6f7220617070726f76656420666f7220616c6c000000000000000060648201526084016106ac565b610a2583836112b4565b505050565b6006546001600160a01b03163314610a545760405162461bcd60e51b81526004016106ac90611f3d565b80516107e9906008906020840190611b87565b610a713382611322565b610a8d5760405162461bcd60e51b81526004016106ac90611fad565b610a25838383611419565b6006546001600160a01b03163314610ac25760405162461bcd60e51b81526004016106ac90611f3d565b600a544711610b095760405162461bcd60e51b81526020600482015260136024820152724e6f7468696e6720746f20776974686472617760681b60448201526064016106ac565b6000600a5447610b199190612014565b604051909150600090339083908381818185875af1925050503d8060008114610b5e576040519150601f19603f3d011682016040523d82523d6000602084013e610b63565b606091505b50509050806107e95760405162461bcd60e51b815260206004820152600f60248201526e15da5d1a191c985dc819985a5b1959608a1b60448201526064016106ac565b610a2583838360405180602001604052806000815250611074565b6006546001600160a01b03163314610beb5760405162461bcd60e51b81526004016106ac90611f3d565b80516107e9906007906020840190611b87565b6000818152600260205260408120546001600160a01b03168061067c5760405162461bcd60e51b815260206004820152602960248201527f4552433732313a206f776e657220717565727920666f72206e6f6e657869737460448201526832b73a103a37b5b2b760b91b60648201526084016106ac565b60078054610c8290611f72565b80601f0160208091040260200160405190810160405280929190818152602001828054610cae90611f72565b8015610cfb5780601f10610cd057610100808354040283529160200191610cfb565b820191906000526020600020905b815481529060010190602001808311610cde57829003601f168201915b505050505081565b60006001600160a01b038216610d6e5760405162461bcd60e51b815260206004820152602a60248201527f4552433732313a2062616c616e636520717565727920666f7220746865207a65604482015269726f206164647265737360b01b60648201526084016106ac565b506001600160a01b031660009081526003602052604090205490565b6006546001600160a01b03163314610db45760405162461bcd60e51b81526004016106ac90611f3d565b610dbe60006115b5565b565b6006546001600160a01b03163314610dea5760405162461bcd60e51b81526004016106ac90611f3d565b600955565b6060600180546107fc90611f72565b600654600160a01b900460ff16610e4c5760405162461bcd60e51b815260206004820152601260248201527153616c65206973206e6f742061637469766560701b60448201526064016106ac565b611a0a81610e59600b5490565b610e63919061202b565b1115610eb15760405162461bcd60e51b815260206004820152601760248201527f576f756c6420657863656564206d617820737570706c7900000000000000000060448201526064016106ac565b600081118015610ec25750600a8111155b610f065760405162461bcd60e51b8152602060048201526015602482015274496e76616c6964206d696e74207175616e7469747960581b60448201526064016106ac565b80600954610f149190612043565b3414610f625760405162461bcd60e51b815260206004820152601d60248201527f45746865722076616c75652073656e7420697320696e636f727265637400000060448201526064016106ac565b6000610f6e3383611607565b60405163c3c5a54760e01b81523360048201529091506000906001600160a01b037f0000000000000000000000000000000000000000000000000000000000000000169063c3c5a5479060240160206040518083038186803b158015610fd357600080fd5b505afa158015610fe7573d6000803e3d6000fd5b505050506040513d601f19601f8201168201806040525081019061100b9190612062565b90508015610a255734600a6000828254611025919061202b565b90915550506040517f74dd375537dbb0a3fd231ee9f29143c9935dfa895779ca83b21a3c47bbba4d959061105c903390859061207f565b60405180910390a1505050565b6107e93383836116dc565b61107e3383611322565b61109a5760405162461bcd60e51b81526004016106ac90611fad565b6110a6848484846117ab565b50505050565b6006546001600160a01b031633146110d65760405162461bcd60e51b81526004016106ac90611f3d565b600b54156111265760405162461bcd60e51b815260206004820152601860248201527f43616e6e6f742062652063616c6c656420616e796d6f7265000000000000000060448201526064016106ac565b61113133600a611607565b50565b60088054610c8290611f72565b6000818152600260205260409020546060906001600160a01b03166111c05760405162461bcd60e51b815260206004820152602f60248201527f4552433732314d657461646174613a2055524920717565727920666f72206e6f60448201526e3732bc34b9ba32b73a103a37b5b2b760891b60648201526084016106ac565b60006111ca6117de565b905060008151116111ea5760405180602001604052806000815250611215565b806111f4846117ed565b6040516020016112059291906120d5565b6040516020818303038152906040525b9392505050565b6006546001600160a01b031633146112465760405162461bcd60e51b81526004016106ac90611f3d565b6001600160a01b0381166112ab5760405162461bcd60e51b815260206004820152602660248201527f4f776e61626c653a206e6577206f776e657220697320746865207a65726f206160448201526564647265737360d01b60648201526084016106ac565b611131816115b5565b600081815260046020526040902080546001600160a01b0319166001600160a01b03841690811790915581906112e982610bfe565b6001600160a01b03167f8c5be1e5ebec7d5bd14f71427d1e84f3dd0314c0f7b2291e5b200ac8c7c3b92560405160405180910390a45050565b6000818152600260205260408120546001600160a01b031661139b5760405162461bcd60e51b815260206004820152602c60248201527f4552433732313a206f70657261746f7220717565727920666f72206e6f6e657860448201526b34b9ba32b73a103a37b5b2b760a11b60648201526084016106ac565b60006113a683610bfe565b9050806001600160a01b0316846001600160a01b031614806113e15750836001600160a01b03166113d68461087f565b6001600160a01b0316145b8061141157506001600160a01b0380821660009081526005602090815260408083209388168352929052205460ff165b949350505050565b826001600160a01b031661142c82610bfe565b6001600160a01b0316146114905760405162461bcd60e51b815260206004820152602560248201527f4552433732313a207472616e736665722066726f6d20696e636f72726563742060448201526437bbb732b960d91b60648201526084016106ac565b6001600160a01b0382166114f25760405162461bcd60e51b8152602060048201526024808201527f4552433732313a207472616e7366657220746f20746865207a65726f206164646044820152637265737360e01b60648201526084016106ac565b6114fd6000826112b4565b6001600160a01b0383166000908152600360205260408120805460019290611526908490612014565b90915550506001600160a01b038216600090815260036020526040812080546001929061155490849061202b565b909155505060008181526002602052604080822080546001600160a01b0319166001600160a01b0386811691821790925591518493918716917fddf252ad1be2c89b69c2b068fc378daa952ba7f163c4a11628f55a4df523b3ef91a4505050565b600680546001600160a01b038381166001600160a01b0319831681179093556040519116919082907f8be0079c531659141344cd1fd0a4f28419497f9722a3daafe3b4186f6b6457e090600090a35050565b606060008267ffffffffffffffff81111561162457611624611d1d565b60405190808252806020026020018201604052801561164d578160200160208202803683370190505b50905060005b838110156116bc5780600b54611669919061202b565b82828151811061167b5761167b612104565b6020026020010181815250506116aa8583838151811061169d5761169d612104565b60200260200101516118eb565b806116b48161211a565b915050611653565b5082600b60008282546116cf919061202b565b9091555090949350505050565b816001600160a01b0316836001600160a01b0316141561173e5760405162461bcd60e51b815260206004820152601960248201527f4552433732313a20617070726f766520746f2063616c6c65720000000000000060448201526064016106ac565b6001600160a01b03838116600081815260056020908152604080832094871680845294825291829020805460ff191686151590811790915591519182527f17307eab39ab6107e8899845ad3d59bd9653f200f220920489ca2b5937696c31910160405180910390a3505050565b6117b6848484611419565b6117c284848484611905565b6110a65760405162461bcd60e51b81526004016106ac90612135565b6060600780546107fc90611f72565b6060816118115750506040805180820190915260018152600360fc1b602082015290565b8160005b811561183b57806118258161211a565b91506118349050600a8361219d565b9150611815565b60008167ffffffffffffffff81111561185657611856611d1d565b6040519080825280601f01601f191660200182016040528015611880576020820181803683370190505b5090505b841561141157611895600183612014565b91506118a2600a866121b1565b6118ad90603061202b565b60f81b8183815181106118c2576118c2612104565b60200101906001600160f81b031916908160001a9053506118e4600a8661219d565b9450611884565b6107e9828260405180602001604052806000815250611a12565b60006001600160a01b0384163b15611a0757604051630a85bd0160e11b81526001600160a01b0385169063150b7a02906119499033908990889088906004016121c5565b602060405180830381600087803b15801561196357600080fd5b505af1925050508015611993575060408051601f3d908101601f1916820190925261199091810190612202565b60015b6119ed573d8080156119c1576040519150601f19603f3d011682016040523d82523d6000602084013e6119c6565b606091505b5080516119e55760405162461bcd60e51b81526004016106ac90612135565b805181602001fd5b6001600160e01b031916630a85bd0160e11b149050611411565b506001949350505050565b611a1c8383611a45565b611a296000848484611905565b610a255760405162461bcd60e51b81526004016106ac90612135565b6001600160a01b038216611a9b5760405162461bcd60e51b815260206004820181905260248201527f4552433732313a206d696e7420746f20746865207a65726f206164647265737360448201526064016106ac565b6000818152600260205260409020546001600160a01b031615611b005760405162461bcd60e51b815260206004820152601c60248201527f4552433732313a20746f6b656e20616c7265616479206d696e7465640000000060448201526064016106ac565b6001600160a01b0382166000908152600360205260408120805460019290611b2990849061202b565b909155505060008181526002602052604080822080546001600160a01b0319166001600160a01b03861690811790915590518392907fddf252ad1be2c89b69c2b068fc378daa952ba7f163c4a11628f55a4df523b3ef908290a45050565b828054611b9390611f72565b90600052602060002090601f016020900481019282611bb55760008555611bfb565b82601f10611bce57805160ff1916838001178555611bfb565b82800160010185558215611bfb579182015b82811115611bfb578251825591602001919060010190611be0565b50611c07929150611c0b565b5090565b5b80821115611c075760008155600101611c0c565b6001600160e01b03198116811461113157600080fd5b600060208284031215611c4857600080fd5b813561121581611c20565b60005b83811015611c6e578181015183820152602001611c56565b838111156110a65750506000910152565b60008151808452611c97816020860160208601611c53565b601f01601f19169290920160200192915050565b6020815260006112156020830184611c7f565b600060208284031215611cd057600080fd5b5035919050565b80356001600160a01b0381168114611cee57600080fd5b919050565b60008060408385031215611d0657600080fd5b611d0f83611cd7565b946020939093013593505050565b634e487b7160e01b600052604160045260246000fd5b600067ffffffffffffffff80841115611d4e57611d4e611d1d565b604051601f8501601f19908116603f01168101908282118183101715611d7657611d76611d1d565b81604052809350858152868686011115611d8f57600080fd5b858560208301376000602087830101525050509392505050565b600060208284031215611dbb57600080fd5b813567ffffffffffffffff811115611dd257600080fd5b8201601f81018413611de357600080fd5b61141184823560208401611d33565b600080600060608486031215611e0757600080fd5b611e1084611cd7565b9250611e1e60208501611cd7565b9150604084013590509250925092565b600060208284031215611e4057600080fd5b61121582611cd7565b801515811461113157600080fd5b60008060408385031215611e6a57600080fd5b611e7383611cd7565b91506020830135611e8381611e49565b809150509250929050565b60008060008060808587031215611ea457600080fd5b611ead85611cd7565b9350611ebb60208601611cd7565b925060408501359150606085013567ffffffffffffffff811115611ede57600080fd5b8501601f81018713611eef57600080fd5b611efe87823560208401611d33565b91505092959194509250565b60008060408385031215611f1d57600080fd5b611f2683611cd7565b9150611f3460208401611cd7565b90509250929050565b6020808252818101527f4f776e61626c653a2063616c6c6572206973206e6f7420746865206f776e6572604082015260600190565b600181811c90821680611f8657607f821691505b60208210811415611fa757634e487b7160e01b600052602260045260246000fd5b50919050565b60208082526031908201527f4552433732313a207472616e736665722063616c6c6572206973206e6f74206f6040820152701ddb995c881b9bdc88185c1c1c9bdd9959607a1b606082015260800190565b634e487b7160e01b600052601160045260246000fd5b60008282101561202657612026611ffe565b500390565b6000821982111561203e5761203e611ffe565b500190565b600081600019048311821515161561205d5761205d611ffe565b500290565b60006020828403121561207457600080fd5b815161121581611e49565b6001600160a01b038316815260406020808301829052835191830182905260009184820191906060850190845b818110156120c8578451835293830193918301916001016120ac565b5090979650505050505050565b600083516120e7818460208801611c53565b8351908301906120fb818360208801611c53565b01949350505050565b634e487b7160e01b600052603260045260246000fd5b600060001982141561212e5761212e611ffe565b5060010190565b60208082526032908201527f4552433732313a207472616e7366657220746f206e6f6e20455243373231526560408201527131b2b4bb32b91034b6b83632b6b2b73a32b960711b606082015260800190565b634e487b7160e01b600052601260045260246000fd5b6000826121ac576121ac612187565b500490565b6000826121c0576121c0612187565b500690565b6001600160a01b03858116825284166020820152604081018390526080606082018190526000906121f890830184611c7f565b9695505050505050565b60006020828403121561221457600080fd5b815161121581611c2056fea26469706673582212207fab021f65ede3f5fd2f8f20fc29f03d3cc49f01177c1d0f8367c2b105b8b1db64736f6c634300080900334f776e61626c653a2063616c6c6572206973206e6f7420746865206f776e6572",
  "linkReferences": {},
  "deployedLinkReferences": {}
}